:020000040800F2
:100000000028002019030008C9020008CF020008D8
:10001000D5020008DB020008E10200080000000031
:10002000000000000000000000000000E7020008DF
:10003000F302000800000000FF020008B9020008F7
:100040006103000861030008610300086103000800
:1000500061030008610300086103000861030008F0
:1000600061030008610300086103000861030008E0
:1000700061030008610300086103000861030008D0
:1000800061030008610300086103000861030008C0
:1000900061030008610300086103000861030008B0
:1000A00061030008610300086103000861030008A0
:1000B00061030008610300080000000061030008FC
:1000C0006103000800000000000000006103000858
:1000D0000000000061030008610300080000000048
:1000E00061030008610300086103000800000000CC
:1000F0000000000000000000000000000000000000
:0C01000000000000000000005FF808F1A3
:10010C0010B5054C237833B9044B13B10448AFF345
:10011C0000800123237010BD0400002000000000AB
:10012C003007000808B5034B1BB103490348AFF374
:10013C00008008BD00000000080000203007000807
:10014C0080B485B000AF78607B684FF4FA5202FB44
:10015C0003F3FB60064AFB685360054B00229A6070
:10016C00034B07221A6000BF1437BD4680BC704792
:10017C0010E000E080B483B000AF294B1B78013352
:10018C005A4203F0030302F0030258BF5342FB71BF
:10019C00234B1B78032B1BD801A252F823F000BF72
:1001AC00BD010008C5010008CD010008D5010008FB
:1001BC001C4B2122DA600CE01A4B1122DA6008E0A9
:1001CC00184B0C22DA6004E0164B0A22DA6000E0CD
:1001DC0000BF154B1B680133134A1360124B1A688E
:1001EC000F4B1B78002B0DD00D4B1B78012B07D020
:1001FC000B4B1B78022B01D10F2304E0032302E0ED
:10020C00022300E00A23934205D1054AFB791370BF
:10021C00054B00221A6000BF0C37BD4680BC7047EE
:10022C0020000020000801402400002080B500AF11
:10023C0000F00AF84FF47A70FFF782FF01210020DA
:10024C0000F030FAFAE7000080B586B000AF07F195
:10025C00080300221A605A609A60DA60114B9B699D
:10026C00104A43F0040393610E4B9B6903F00403A3
:10027C007B607B6800223F210B4800F0FBF93F2399
:10028C00BB600123FB6000233B6102237B6107F110
:10029C0008031946044800F071F800BF1837BD4632
:1002AC0080BD00BF001002400008014080B500AFC7
:1002BC00FFF760FF00F050F800BF80BD80B400AFC6
:1002CC00FEE780B400AFFEE780B400AFFEE780B479
:1002DC0000AFFEE780B400AFFEE780B400AF00BF14
:1002EC00BD4680BC704780B400AF00BFBD4680BC2B
:1002FC00704780B400AF00BFBD4680BC704780B46F
:10030C0000AF00BFBD4680BC70470000FFF7F7FF91
:10031C000B480C490C4A002302E0D458C450043357
:10032C00C4188C42F9D3094A094C002301E013602C
:10033C000432A242FBD300F0D1F9FFF777FF7047EC
:10034C0000000020040000205007000804000020DA
:10035C002C000020FEE7000080B400AF054B1B789A
:10036C001A46054B1B681344034A136000BFBD4675
:10037C0080BC7047000000202800002080B48BB0A7
:10038C0000AF7860396000237B6200233B6261E13F
:10039C0001227B6A02FA03F3FB613B681B68FA6972
:1003AC001340BB61BA69FB699A4240F050813B68CB
:1003BC005B68974A93425ED0954A934275D8954AAA
:1003CC00934258D0934A93426FD8934A934252D057
:1003DC00914A934269D8914A93424CD08F4A9342A6
:1003EC0063D88F4A934246D08D4A93425DD8122BE4
:1003FC002AD8122B59D801A252F823F083040008F2
:10040C005D0400086F040008B1040008B70400087C
:10041C00B7040008B7040008B7040008B7040008C4
:10042C00B7040008B7040008B7040008B7040008B4
:10043C00B7040008B7040008B7040008B7040008A4
:10044C006504000879040008764A934213D02CE026
:10045C003B68DB683B6229E03B68DB6804333B624A
:10046C0024E03B68DB6808333B621FE03B68DB68D9
:10047C000C333B621AE03B689B68002B02D10423CF
:10048C003B6213E03B689B68012B05D108233B6260
:10049C007B68FA691A6109E008233B627B68FA6998
:1004AC005A6103E000233B6200E000BFBB69FF2BF5
:1004BC0001D87B6801E07B6804337B61BB69FF2B4F
:1004CC0002D87B6A9B0002E07B6A083B9B003B6185
:1004DC007B691A680F213B6901FA03F3DB431A406D
:1004EC00396A3B6901FA03F31A437B691A603B686A
:1004FC005B6803F08053002B00F0A9804A4B9B698A
:10050C00494A43F001039361474B9B6903F0010394
:10051C00BB60BB68454A7B6A9B08023352F82330A8
:10052C00FB607B6A03F003039B000F2202FA03F3C8
:10053C00DB43FA681340FB607B683D4A93420DD065
:10054C007B683C4A934207D07B683B4A934201D17B
:10055C00022304E0032302E0012300E000237A6A73
:10056C0002F0030292009340FA681343FB602F4998
:10057C007B6A9B080233FA6841F823203B685B686E
:10058C0003F48013002B06D02C4B9A682B49BB69C3
:10059C0013438B6006E0294B9A68BB69DB43274900
:1005AC0013408B603B685B6803F40013002B06D090
:1005BC00224BDA682149BB691343CB6006E01F4B21
:1005CC00DA68BB69DB431D491340CB603B685B6851
:1005DC0003F40033002B06D0184B5A681749BB693B
:1005EC0013434B6006E0154B5A68BB69DB43134958
:1005FC0013404B603B685B6803F48033002B1FD0C7
:10060C000E4B1A680D49BB6913430B601FE000BF0A
:10061C0000003210000031100000221000002110E8
:10062C0000001210000011100010024000000140E8
:10063C0000080140000C0140001001400004014082
:10064C000B4B1A68BB69DB43094913400B607B6A8F
:10065C0001337B623B681A687B6A22FA03F3002B36
:10066C007FF496AE00BF00BF2C37BD4680BC7047F0
:10067C000004014080B483B000AF78600B467B80EF
:10068C0013467B707B78002B03D07A887B681A61C9
:10069C0003E07B881A047B681A6100BF0C37BD46E7
:1006AC0080BC704780B483B000AF78600B46FB70A1
:1006BC00094B1B69084A23F004031361FB78012BD7
:1006CC0001D130BF02E040BF20BF20BF00BF0C37BC
:1006DC00BD4680BC704700BF00ED00E070B5002641
:1006EC000C4D0D4C641BA410A64209D100F01AF855
:1006FC0000260A4D0A4C641BA410A64205D170BDFD
:10070C0055F8043B98470136EEE755F8043B9847FB
:10071C000136F2E7480700084807000848070008B8
:10072C004C070008F8B500BFF8BC08BC9E467047E3
:0C073C00F8B500BFF8BC08BC9E46704732
:040748003101000873
:04074C000D01000893
:0407500001000000A4
:0400000508000319D3
:00000001FF
