:020000040800F2
:100000000028002075040008250400082B040008BF
:1000100031040008370400083D0400080000000017
:100020000000000000000000000000004304000881
:100030004F040008000000005B040008990300085A
:10004000BD040008BD040008BD040008BD0400088C
:10005000BD040008BD040008BD040008BD0400087C
:10006000BD040008BD040008BD040008BD0400086C
:10007000BD040008BD040008BD040008BD0400085C
:10008000BD040008BD040008BD040008BD0400084C
:10009000BD040008BD040008BD040008BD0400083C
:1000A000BD040008BD040008BD040008BD0400082C
:1000B000BD040008BD04000800000000BD040008E5
:1000C000BD0400080000000000000000BD0400089E
:1000D00000000000BD040008BD040008000000008E
:1000E000BD040008BD040008BD04000800000000B5
:1000F0000000000000000000000000000000000000
:0C01000000000000000000005FF808F1A3
:10010C0010B5054C237833B9044B13B10448AFF345
:10011C0000800123237010BD0C00002000000000A3
:10012C003008000808B5034B1BB103490348AFF373
:10013C00008008BD000000001000002030080008FE
:10014C0080B485B000AF78607B684FF4FA5202FB44
:10015C0003F3FB60064AFB685360054B00229A6070
:10016C00034B07221A6000BF1437BD4680BC704792
:10017C0010E000E090B589B000AF7860254B07F136
:10018C000C040FCB84E80F000023FB6139E0FB6902
:10019C005B0020333B4433F8143C012219461E48C3
:1001AC0000F004FB1C4BDB681B4A03F47F43D36059
:1001BC00194BDB681949FA690A4412781146184A36
:1001CC00525C1146144A0B43D36000BF154B1B788D
:1001DC000133DAB2134B1A70124B1B78632BF5D91F
:1001EC00104B00221A70FB695B0020333B4433F840
:1001FC00143C00221946084800F0D8FAFB69013378
:10020C00FB61FB69072BC2DD00BF00BF2437BD4675
:10021C0090BD00BF480800080008014028000020DD
:10022C00000000203000002080B584B000AFF860E2
:10023C00B9607A60FB682B4A82FB03129210DB17C1
:10024C00D31ADAB2284B1A70FA68264B83FB0213C6
:10025C009910D317C91A0B469B000B445B00D11A9B
:10026C00CAB2214B5A70204B0A229A70BB681D4AA5
:10027C0082FB03129210DB17D31ADAB21A4BDA7024
:10028C00BA68184B83FB02139910D317C91A0B4683
:10029C009B000B445B00D11ACAB2134B1A71124B60
:1002AC000A225A717B680F4A82FB03129210DB17E9
:1002BC00D31ADAB20C4B9A717A680A4B83FB02138D
:1002CC009910D317C91A0B469B000B445B00D11A2B
:1002DC00CAB2054BDA710520FFF74CFF00BF10378F
:1002EC00BD4680BD676666662800002080B500AFFD
:1002FC0000F018F80A20FFF723FF074B1B78DBB23E
:10030C001846064B1B78DBB21946054B1B78DBB243
:10031C001A46FFF789FFF0E7310000203200002079
:10032C003300002080B586B000AF07F1080300222F
:10033C001A605A609A60DA60124B9B69114A43F05A
:10034C00040393610F4B9B6903F004037B607B6890
:10035C0000224FF6FF710C4800F028FA4FF6FF739D
:10036C00BB600123FB6000233B6102237B6107F12F
:10037C0008031946044800F09DF800BF1837BD4625
:10038C0080BD00BF001002400008014080B400AFE7
:10039C001D4B1B6801331C4A1360632B2FD91A4B5E
:1003AC0000221A60194B1B78DBB20133DAB2174BFF
:1003BC001A70164B1B78DBB23C2B20D1134B00224E
:1003CC001A70134B1B78DBB20133DAB2104B1A7074
:1003DC000F4B1B78DBB23C2B11D10D4B00221A704A
:1003EC000C4B1B78DBB20133DAB20A4B1A70094B97
:1003FC001B78DBB2182B02D1064B00221A7000BFFF
:10040C00BD4680BC704700BF340000203300002084
:10041C00320000203100002080B400AFFEE780B431
:10042C0000AFFEE780B400AFFEE780B400AFFEE79C
:10043C0080B400AFFEE780B400AF00BFBD4680BC07
:10044C00704780B400AF00BFBD4680BC704780B41D
:10045C0000AF00BFBD4680BC704780B400AF00BF8A
:10046C00BD4680BC70470000FFF7F7FF0B480C49F6
:10047C000C4A002302E0D458C4500433C4188C42F4
:10048C00F9D3094A094C002301E013600432A2425B
:10049C00FBD300F0A3F9FFF729FF70470000002001
:1004AC000C000020600800080C0000203800002020
:1004BC00FEE7000080B48BB000AF78603960002399
:1004CC007B6200233B6261E101227B6A02FA03F347
:1004DC00FB613B681B68FA691340BB61BA69FB6935
:1004EC009A4240F050813B685B68974A93425ED0D9
:1004FC00954A934275D8954A934258D0934A934261
:10050C006FD8934A934252D0914A934269D8914AF8
:10051C0093424CD08F4A934263D88F4A934246D031
:10052C008D4A93425DD8122B2AD8122B59D801A28E
:10053C0052F823F0BB05000895050008A705000834
:10054C00E9050008EF050008EF050008EF050008B5
:10055C00EF050008EF050008EF050008EF0500089F
:10056C00EF050008EF050008EF050008EF0500088F
:10057C00EF050008EF0500089D050008B10500080F
:10058C00764A934213D02CE03B68DB683B6229E04F
:10059C003B68DB6804333B6224E03B68DB68083370
:1005AC003B621FE03B68DB680C333B621AE03B6844
:1005BC009B68002B02D104233B6213E03B689B68D1
:1005CC00012B05D108233B627B68FA691A6109E0AB
:1005DC0008233B627B68FA695A6103E000233B62A3
:1005EC0000E000BFBB69FF2B01D87B6801E07B6892
:1005FC0004337B61BB69FF2B02D87B6A9B0002E052
:10060C007B6A083B9B003B617B691A680F213B6945
:10061C0001FA03F3DB431A40396A3B6901FA03F32D
:10062C001A437B691A603B685B6803F08053002BAC
:10063C0000F0A9804A4B9B69494A43F0010393613E
:10064C00474B9B6903F00103BB60BB68454A7B6A5F
:10065C009B08023352F82330FB607B6A03F00303E0
:10066C009B000F2202FA03F3DB43FA681340FB6092
:10067C007B683D4A93420DD07B683C4A934207D03D
:10068C007B683B4A934201D1022304E0032302E03E
:10069C00012300E000237A6A02F0030292009340E7
:1006AC00FA681343FB602F497B6A9B080233FA6894
:1006BC0041F823203B685B6803F48013002B06D0C1
:1006CC002C4B9A682B49BB6913438B6006E0294B72
:1006DC009A68BB69DB43274913408B603B685B68B6
:1006EC0003F40013002B06D0224BDA682149BB69B6
:1006FC001343CB6006E01F4BDA68BB69DB431D4933
:10070C001340CB603B685B6803F40033002B06D0CE
:10071C00184B5A681749BB6913434B6006E0154BDD
:10072C005A68BB69DB43134913404B603B685B68F9
:10073C0003F48033002B1FD00E4B1A680D49BB6994
:10074C0013430B601FE000BF00003210000031109B
:10075C0000002210000021100000121000001110E7
:10076C00001002400000014000080140000C014054
:10077C0000100140000401400B4B1A68BB69DB43BD
:10078C00094913400B607B6A01337B623B681A6832
:10079C007B6A22FA03F3002B7FF496AE00BF00BFF6
:1007AC002C37BD4680BC70470004014080B483B038
:1007BC0000AF78600B467B8013467B707B78002BF8
:1007CC0003D07A887B681A6103E07B881A047B6803
:1007DC001A6100BF0C37BD4680BC704770B500264F
:1007EC000C4D0D4C641BA410A64209D100F01AF854
:1007FC0000260A4D0A4C641BA410A64205D170BDFC
:10080C0055F8043B98470136EEE755F8043B9847FA
:10081C000136F2E758080008580800085808000884
:10082C005C080008F8B500BFF8BC08BC9E467047D1
:0C083C00F8B500BFF8BC08BC9E46704731
:1008480000010002000400080010002000400080A1
:040858003101000862
:04085C000D01000882
:0C086000C0F9A4B0999282F88090BF000B
:040000050800047576
:00000001FF
