:020000040800F2
:10000000002800203D0A0008610800086708000871
:100010006D08000873080008790800080000000057
:100020000000000000000000000000007F08000841
:100030008B0800080000000097080008A3080008CB
:10004000850A0008850A0008850A0008850A000854
:10005000850A0008850A0008850A0008850A000844
:10006000850A0008850A0008850A0008850A000834
:10007000850A0008850A0008850A0008850A000824
:10008000850A0008850A0008850A0008850A000814
:10009000850A0008850A0008850A0008850A000804
:1000A000850A0008850A0008850A0008850A0008F4
:1000B000850A0008850A000800000000850A00087B
:1000C000850A00080000000000000000850A000802
:1000D00000000000850A0008850A000800000000F2
:1000E000850A0008850A0008850A0008000000004B
:1000F0000000000000000000000000000000000000
:0C01000000000000000000005FF808F1A3
:10010C0010B5054C237833B9044B13B10448AFF345
:10011C0000800123237010BD7C0000200000000033
:10012C001C28000808B5034B1BB103490348AFF367
:10013C00008008BD00000000800000201C28000882
:10014C0080B400AF5E4B6FF480521A615C4B4FF47D
:10015C0000521A615A4B4FF480421A61584B4FF4BB
:10016C0000421A61574B9B6803F00103002B03D12B
:10017C00554B01221A7012E0524B9B6803F002039C
:10018C00002B03D1504B02221A7008E04D4B9B6898
:10019C0003F00403002B02D14B4B03221A70484B83
:1001AC004FF480521A61464B6FF400521A61444B63
:1001BC004FF480421A61424B4FF400421A61414B9A
:1001CC009B6803F00103002B03D13F4B04221A70F0
:1001DC0012E03C4B9B6803F00203002B03D13A4B1B
:1001EC0005221A7008E0374B9B6803F00403002BC0
:1001FC0002D1354B06221A70314B4FF480521A61E2
:10020C002F4B4FF400521A612D4B6FF480421A6140
:10021C002B4B4FF400421A612A4B9B6803F00103ED
:10022C00002B03D1284B07221A7012E0254B9B6838
:10023C0003F00203002B03D1234B08221A7008E0B1
:10024C00204B9B6803F00403002B02D11E4B0922A8
:10025C001A701B4B4FF480521A61194B4FF4005219
:10026C001A61174B4FF480421A61154B6FF4004220
:10027C001A61144B9B6803F00103002B03D1124B42
:10028C000A221A7012E00F4B9B6803F00203002B3A
:10029C0003D10D4B00221A7008E00A4B9B6803F047
:1002AC000403002B02D1084B0B221A70044B4FF4A1
:1002BC0000421A61044B1B781846BD4680BC70473F
:1002CC0000080140000C01400000002080B586B001
:1002DC0000AF7860204A07F10C0392E8030083E832
:1002EC00030000237B612FE07B695B0018333B44E8
:1002FC0033F80C3C01221946184800F0A5FE174BA8
:10030C00DB68164A03F47F43D360144BDB68144953
:10031C007A690A4412781146124A525C11460F4A05
:10032C000B43D3607B68184600F00AFC7B695B00CA
:10033C0018333B4433F80C3C00221946074800F0B4
:10034C0083FE7B6901337B617B69032BCCDD00BFB2
:10035C0000BF1837BD4680BD342800080008014096
:10036C00980000200400002080B582B000AF7860B7
:10037C007B68344A82FB03129211DB17D31ADAB270
:10038C00314B1A707A682F4B83FB02139911D317D8
:10039C00CB1A4FF47A7101FB03F3D31A2B4A82FB6D
:1003AC0003125211DB17D31ADAB2274B5A707A6840
:1003BC00244B83FB02139911D317CB1A4FF47A7188
:1003CC0001FB03F3D31A214A82FB03125111DA17F2
:1003DC008A1A642101FB02F29A1A1D4B83FB021349
:1003EC009910D317CB1ADAB2174B9A707A68154B4F
:1003FC0083FB02139911D317CB1A4FF47A7101FBBB
:10040C0003F3D31A114A82FB03125111DA178A1A19
:10041C00642101FB02F29A1A0D4B83FB0213991013
:10042C00D317C91A0B469B000B445B00D11ACAB2F6
:10043C00054BDA700120FFF749FF00BF0837BD46B6
:10044C0080BD00BFD34D6210980000201F85EB517A
:10045C006766666680B500AF084B0A221A70074BB8
:10046C000B225A70054B01229A70044B0C22DA7045
:10047C000120FFF72BFF00BF80BD00BF98000020BC
:10048C0080B500AF084B0D221A70074B00225A7032
:10049C00054B05229A70044B0522DA700120FFF7F8
:1004AC0015FF00BF80BD00BF9800002080B586B04E
:1004BC0000AF00F0E3FA00F0F1F800F02BF90023A4
:1004CC00FB700A237B6100233B61FFF739FE034677
:1004DC00FB70FB78092BF8D8FB781846FFF744FF24
:1004EC00FFF72EFE03460B2BE9D10521032000F06C
:1004FC0073F90346BB700C21032000F06DF9034621
:10050C007B700023FB603CE00323BB6030E0624B5C
:10051C00DB680121BA6801FA02F211465E4A0B430C
:10052C00D3607B6902337B6104E0BB68033B1846F4
:10053C00FFF71AFF00F0FAFA02463B69D31A7A6900
:10054C009A42F2D800F0F2FA3861534BDB68012181
:10055C00BA6801FA02F2D24311464F4A0B40D360FB
:10056C00BB68033B1846FFF7FFFEBB680133BB605B
:10057C00BB680C2BCBDD7B690A337B61FB680133D9
:10058C00FB60BB78FA689A42BEDB03237B6030E0E9
:10059C00414BDB6801217A6801FA02F211463E4AAE
:1005AC000B43D3607B6964337B6104E07B68033B62
:1005BC001846FFF7D9FE00F0B9FA02463B69D31A88
:1005CC007A699A42F2D800F0B1FA3861324BDB68A2
:1005DC0001217A6801FA02F2D24311462E4A0B40ED
:1005EC00D3607B68033B1846FFF7BEFE7B68013384
:1005FC007B607B787A689A42CADD7B78033B18462D
:10060C00FFF7B2FE244BDB687A78012101FA02F283
:10061C001146214A0B43D36004E07B78033B184618
:10062C00FFF7A2FE00F082FA02463B69D31AB3F53B
:10063C007A7FF2D3FA787B78033B9A4215D1164B2A
:10064C00DB68154A43F40053D360FFF703FFFFF751
:10065C0077FD03460A2BF2D10F4BDB680E4A23F4CD
:10066C007F3323F47E73D36029E70B4BDB680A4A94
:10067C0043F48043D360FFF703FFFFF761FD0346AC
:10068C000A2BF2D1044BDB68034A23F47F3323F4A7
:10069C007E73D36013E700BF000C014080B590B0AF
:1006AC0000AF07F1180328220021184601F005FAC3
:1006BC003B1D00221A605A609A60DA601A610223AC
:1006CC00BB610123BB621023FB6200237B6307F138
:1006DC001803184600F0D0FC0346002B01D000F0A4
:1006EC0092F80F237B600023BB600023FB60002388
:1006FC003B6100237B613B1D0021184600F03EFF4F
:10070C000346002B01D000F07EF800BF4037BD46F9
:10071C0080BD000080B586B000AF07F10803002251
:10072C001A605A609A60DA60284B9B69274A43F03A
:10073C0004039361254B9B6903F004037B607B6886
:10074C00224B9B69214A43F0080393611F4B9B6921
:10075C0003F008033B603B6800224FF6FF711C4816
:10076C0000F072FC002247F6F8711A4800F06CFC9D
:10077C004FF6FF73BB600123FB6000233B61022338
:10078C007B6107F108031946114800F0E1FA0723D1
:10079C00BB600023FB6001233B6107F10803194692
:1007AC000C4800F0D5FA47F6F873BB600123FB60E8
:1007BC0000233B6102237B6107F1080319460548BE
:1007CC0000F0C6FA00BF1837BD4680BD00100240CD
:1007DC0000080140000C014080B582B000AF786089
:1007EC00396001F027F8024639687B68CB1A01336F
:1007FC0092FBF3F101FB03F3D21A7B681344184606
:10080C000837BD4680BD80B400AF72B600BFFEE7AE
:10081C0080B483B000AF0E4B9B690D4A43F00103CB
:10082C0093610B4B9B6903F001037B607B68084B66
:10083C00DB69074A43F08053D361054BDB6903F056
:10084C0080533B603B6800BF0C37BD4680BC704793
:10085C000010024080B400AFFEE780B400AFFEE7AA
:10086C0080B400AFFEE780B400AFFEE780B400AF09
:10087C00FEE780B400AF00BFBD4680BC704780B4BB
:10088C0000AF00BFBD4680BC704780B400AF00BF56
:10089C00BD4680BC704780B500AF00F035F900BF95
:1008AC0080BD80B400AF01231846BD4680BC7047A4
:1008BC0080B582B000AF7860396001F04DF9034625
:1008CC0016221A604FF0FF3318460837BD4680BD1C
:1008DC0080B582B000AF78604FF0FF317868FFF7D9
:1008EC00E7FFFEE780B586B000AFF860B9607A60CC
:1008FC0000237B610AE0AFF300800146BB685A1C01
:10090C00BA60CAB21A707B6901337B617A697B6801
:10091C009A42F0DB7B6818461837BD4680BD80B51F
:10092C0086B000AFF860B9607A6000237B6109E0A3
:10093C00BB685A1CBA601B781846AFF300807B6901
:10094C0001337B617A697B689A42F1DB7B681846DC
:10095C001837BD4680BD80B483B000AF78604FF0CF
:10096C00FF3318460C37BD4680BC704780B483B04B
:10097C0000AF786039603B684FF400525A60002336
:10098C0018460C37BD4680BC704780B483B000AFAE
:10099C007860012318460C37BD4680BC704780B484
:1009AC0085B000AFF860B9607A6000231846143740
:1009BC00BD4680BC7047000080B586B000AF786043
:1009CC00144A154BD31A7B617B693B61134B1B6833
:1009DC00002B02D1114B124A1A60104B1A687B681B
:1009EC0013443A699A4207D201F0B6F803460C2236
:1009FC001A604FF0FF3309E0084B1B68FB60074B94
:100A0C001A687B681344054A1360FB68184618374C
:100A1C00BD4680BD00280020000400009C00002082
:100A2C00F001002080B400AF00BFBD4680BC704711
:100A3C00FFF7F8FF0B480C490C4A002302E0D4588E
:100A4C00C4500433C4188C42F9D3094A094C00230E
:100A5C0001E013600432A242FBD301F083F8FFF7EC
:100A6C0025FD7047000000207C0000204429000870
:100A7C007C000020F0010020FEE7000080B500AFF4
:100A8C00084B1B68074A43F010031360032000F067
:100A9C002BF90F2000F008F8FFF7BAFE00231846D8
:100AAC0080BD00BF0020024080B582B000AF7860EE
:100ABC00124B1A68124B1B7819464FF47A73B3FB1E
:100ACC00F1F3B2FBF3F3184600F035F90346002BB3
:100ADC0001D001230EE07B680F2B0AD80022796825
:100AEC004FF0FF3000F00BF9064A7B6813600023CF
:100AFC0000E0012318460837BD4680BD14000020D5
:100B0C001C0000201800002080B400AF054B1B789F
:100B1C001A46054B1B681344034A136000BFBD46BD
:100B2C0080BC70471C000020A000002080B400AFE7
:100B3C00024B1B681846BD4680BC7047A0000020C5
:100B4C0080B584B000AF7860FFF7F0FFB8607B68C9
:100B5C00FB60FB68B3F1FF3F05D00A4B1B781A46CC
:100B6C00FB681344FB6000BFFFF7E0FF0246BB6865
:100B7C00D31AFA689A42F7D800BF00BF1037BD46A7
:100B8C0080BD00BF1C00002080B485B000AF786031
:100B9C007B6803F00703FB600C4BDB68BB60BA6837
:100BAC004FF6FF031340BB60FB681A02BB6813438C
:100BBC0043F0BF6343F40033BB60044ABB68D360AB
:100BCC0000BF1437BD4680BC704700BF00ED00E08D
:100BDC0080B400AF044BDB681B0A03F00703184614
:100BEC00BD4680BC704700BF00ED00E080B483B010
:100BFC0000AF03463960FB7197F90730002B0ADB15
:100C0C003B68DAB20C4997F907301201D2B20B44A7
:100C1C0083F800230AE03B68DAB20849FB7903F059
:100C2C000F03043B1201D2B20B441A7600BF0C37EF
:100C3C00BD4680BC704700BF00E100E000ED00E065
:100C4C0080B489B000AFF860B9607A60FB6803F0DB
:100C5C000703FB61FB69C3F10703042B28BF0423C3
:100C6C00BB61FB690433062B02D9FB69033B00E033
:100C7C0000237B614FF0FF32BB6902FA03F3DA43C6
:100C8C00BB681A407B699A404FF0FF317B6901FACF
:100C9C0003F3D9437B680B40134318462437BD46F6
:100CAC0080BC704780B582B000AF78607B68013B38
:100CBC00B3F1807F01D301230FE00A4A7B68013B2B
:100CCC0053600F214FF0FF30FFF790FF054B0022D0
:100CDC009A60044B07221A60002318460837BD4659
:100CEC0080BD00BF10E000E080B582B000AF78603E
:100CFC007868FFF749FF00BF0837BD4680BD80B557
:100D0C0086B000AF0346B9607A60FB7300237B6149
:100D1C00FFF75EFF78617A68B9687869FFF790FF32
:100D2C00024697F90F3011461846FFF75FFF00BFD8
:100D3C001837BD4680BD80B582B000AF786078684A
:100D4C00FFF7B0FF034618460837BD4680BD0000CC
:100D5C0080B48BB000AF7860396000237B620023D5
:100D6C003B6261E101227B6A02FA03F3FB613B689F
:100D7C001B68FA691340BB61BA69FB699A4240F07F
:100D8C0050813B685B68974A93425ED0954A934288
:100D9C0075D8954A934258D0934A93426FD8934A48
:100DAC00934252D0914A934269D8914A93424CD083
:100DBC008F4A934263D88F4A934246D08D4A9342CE
:100DCC005DD8122B2AD8122B59D801A252F823F035
:100DDC00570E0008310E0008430E0008850E00085F
:100DEC008B0E00088B0E00088B0E00088B0E000873
:100DFC008B0E00088B0E00088B0E00088B0E000863
:100E0C008B0E00088B0E00088B0E00088B0E000852
:100E1C008B0E0008390E00084D0E0008764A9342DE
:100E2C0013D02CE03B68DB683B6229E03B68DB6855
:100E3C0004333B6224E03B68DB6808333B621FE011
:100E4C003B68DB680C333B621AE03B689B68002B09
:100E5C0002D104233B6213E03B689B68012B05D154
:100E6C0008233B627B68FA691A6109E008233B623C
:100E7C007B68FA695A6103E000233B6200E000BF23
:100E8C00BB69FF2B01D87B6801E07B6804337B6175
:100E9C00BB69FF2B02D87B6A9B0002E07B6A083B94
:100EAC009B003B617B691A680F213B6901FA03F3D4
:100EBC00DB431A40396A3B6901FA03F31A437B6935
:100ECC001A603B685B6803F08053002B00F0A9802C
:100EDC004A4B9B69494A43F001039361474B9B6919
:100EEC0003F00103BB60BB68454A7B6A9B08023375
:100EFC0052F82330FB607B6A03F003039B000F2244
:100F0C0002FA03F3DB43FA681340FB607B683D4A4B
:100F1C0093420DD07B683C4A934207D07B683B4A96
:100F2C00934201D1022304E0032302E0012300E0F9
:100F3C0000237A6A02F0030292009340FA6813438A
:100F4C00FB602F497B6A9B080233FA6841F8232027
:100F5C003B685B6803F48013002B06D02C4B9A681B
:100F6C002B49BB6913438B6006E0294B9A68BB691C
:100F7C00DB43274913408B603B685B6803F4001329
:100F8C00002B06D0224BDA682149BB691343CB6096
:100F9C0006E01F4BDA68BB69DB431D491340CB608D
:100FAC003B685B6803F40033002B06D0184B5A687F
:100FBC001749BB6913434B6006E0154B5A68BB6974
:100FCC00DB43134913404B603B685B6803F480338D
:100FDC00002B1FD00E4B1A680D49BB6913430B60D5
:100FEC001FE000BF00003210000031100000221082
:100FFC00000021100000121000001110001002401F
:10100C000000014000080140000C014000100140AC
:10101C00000401400B4B1A68BB69DB4309491340C0
:10102C000B607B6A01337B623B681A687B6A22FA2D
:10103C0003F3002B7FF496AE00BF00BF2C37BD46E8
:10104C0080BC70470004014080B483B000AF78606E
:10105C000B467B8013467B707B78002B03D07A8801
:10106C007B681A6103E07B881A047B681A6100BFF5
:10107C000C37BD4680BC704780B586B000AF786039
:10108C007B68002B01D1012372E27B681B6803F0A3
:10109C000103002B00F08780924B5B6803F00C037C
:1010AC00042B0CD08F4B5B6803F00C03082B12D174
:1010BC008C4B5B6803F48033B3F5803F0BD1894BC9
:1010CC001B6803F40033002B6CD07B685B68002B2F
:1010DC0068D101234CE27B685B68B3F5803F06D195
:1010EC00804B1B687F4A43F4803313602EE07B688F
:1010FC005B68002B0CD17B4B1B687A4A23F4803342
:10110C001360784B1B68774A23F4802313601DE02F
:10111C007B685B68B3F5A02F0CD1724B1B68714ACE
:10112C0043F4802313606F4B1B686E4A43F4803387
:10113C0013600BE06B4B1B686A4A23F4803313601B
:10114C00684B1B68674A23F4802313607B685B68D9
:10115C00002B13D0FFF7EAFC386108E0FFF7E6FC40
:10116C0002463B69D31A642B01D9032300E25D4B81
:10117C001B6803F40033002BF0D014E0FFF7D6FC0F
:10118C00386108E0FFF7D2FC02463B69D31A642BA6
:10119C0001D90323ECE1534B1B6803F40033002B00
:1011AC00F0D100E000BF7B681B6803F00203002B4A
:1011BC0063D04C4B5B6803F00C03002B0BD0494BFA
:1011CC005B6803F00C03082B1CD1464B5B6803F4E3
:1011DC008033002B16D1434B1B6803F00203002B0A
:1011EC0005D07B681B69012B01D00123C0E13D4B6D
:1011FC001B6823F0F8027B685B69DB0039491343F9
:10120C000B603AE07B681B69002B20D0364B012227
:10121C001A60FFF78BFC386108E0FFF787FC024689
:10122C003B69D31A022B01D90323A1E12D4B1B6877
:10123C0003F00203002BF0D02A4B1B6823F0F802BA
:10124C007B685B69DB00274913430B6015E0264B79
:10125C0000221A60FFF76AFC386108E0FFF766FCB1
:10126C0002463B69D31A022B01D9032380E11D4BA3
:10127C001B6803F00203002BF0D17B681B6803F0A2
:10128C000803002B3AD07B689B69002B19D0174BB5
:10129C0001221A60FFF74AFC386108E0FFF746FCB0
:1012AC0002463B69D31A022B01D9032360E10D4B93
:1012BC005B6A03F00203002BF0D0012000F09CFAD3
:1012CC001CE00A4B00221A60FFF730FC38610FE07B
:1012DC00FFF72CFC02463B69D31A022B08D90323D7
:1012EC0046E100BF0010024000004242800442422E
:1012FC00924B5B6A03F00203002BE9D17B681B68FD
:10130C0003F00403002B00F0A6800023FB758B4B2D
:10131C00DB6903F08053002B0DD1884BDB69874AC6
:10132C0043F08053D361854BDB6903F08053BB6082
:10133C00BB680123FB75824B1B6803F48073002B85
:10134C0018D17F4B1B687E4A43F480731360FFF700
:10135C00EDFB386108E0FFF7E9FB02463B69D31A65
:10136C00642B01D9032303E1754B1B6803F48073D1
:10137C00002BF0D07B68DB68012B06D16F4B1B6A0E
:10138C006E4A43F0010313622DE07B68DB68002B8F
:10139C000CD16A4B1B6A694A23F001031362674B39
:1013AC001B6A664A23F0040313621CE07B68DB684B
:1013BC00052B0CD1614B1B6A604A43F0040313628A
:1013CC005E4B1B6A5D4A43F0010313620BE05B4BFF
:1013DC001B6A5A4A23F001031362584B1B6A574A83
:1013EC0023F0040313627B68DB68002B15D0FFF736
:1013FC009DFB38610AE0FFF799FB02463B69D31A63
:10140C0041F28832934201D90323B1E04B4B1B6A62
:10141C0003F00203002BEED014E0FFF787FB3861DA
:10142C000AE0FFF783FB02463B69D31A41F288328C
:10143C00934201D903239BE0404B1B6A03F0020348
:10144C00002BEED1FB7D012B05D13C4BDB693B4ADC
:10145C0023F08053D3617B68DB69002B00F087801D
:10146C00364B5B6803F00C03082B61D07B68DB699F
:10147C00022B46D1334B00221A60FFF757FB386121
:10148C0008E0FFF753FB02463B69D31A022B01D944
:10149C0003236DE0294B1B6803F00073002BF0D184
:1014AC007B681B6AB3F5803F08D1244B5B6823F43F
:1014BC0000327B689B68214913434B601F4B5B6870
:1014CC0023F474127B68196A7B685B6A0B431B49B3
:1014DC0013434B601B4B01221A60FFF727FB38614B
:1014EC0008E0FFF723FB02463B69D31A022B01D914
:1014FC0003233DE0114B1B6803F00073002BF0D06D
:10150C0035E0104B00221A60FFF710FB386108E041
:10151C00FFF70CFB02463B69D31A022B01D90323BC
:10152C0026E0064B1B6803F00073002BF0D11EE085
:10153C007B68DB69012B07D1012319E00010024005
:10154C0000700040600042420B4B5B68FB60FB6824
:10155C0003F480327B681B6A9A4206D1FB6803F461
:10156C0070127B685B6A9A4201D0012300E0002371
:10157C0018461837BD4680BD0010024080B584B0B7
:10158C0000AF786039607B68002B01D10123D0E07B
:10159C006A4B1B6803F007033A689A4210D9674BF1
:1015AC001B6823F0070265493B6813430B60634BD0
:1015BC001B6803F007033A689A4201D00123B8E094
:1015CC007B681B6803F00203002B20D07B681B6830
:1015DC0003F00403002B05D0594B5B68584A43F4C5
:1015EC00E06353607B681B6803F00803002B05D095
:1015FC00534B5B68524A43F460535360504B5B68E7
:10160C0023F0F0027B689B684D4913434B607B6869
:10161C001B6803F00103002B40D07B685B68012B37
:10162C0007D1474B1B6803F40033002B15D1012362
:10163C007FE07B685B68022B07D1414B1B6803F092
:10164C000073002B09D1012373E03D4B1B6803F0A1
:10165C000203002B01D101236BE0394B5B6823F0B3
:10166C0003027B685B68364913434B60FFF75EFAF5
:10167C00F8600AE0FFF75AFA0246FB68D31A41F207
:10168C008832934201D9032353E02D4B5B6803F05E
:10169C000C027B685B689B009A42EBD1274B1B6862
:1016AC0003F007033A689A4210D2244B1B6823F0CC
:1016BC00070222493B6813430B60204B1B6803F065
:1016CC0007033A689A4201D0012332E07B681B6819
:1016DC0003F00403002B08D0194B5B6823F4E06281
:1016EC007B68DB68164913434B607B681B6803F00F
:1016FC000803002B09D0124B5B6823F460527B6803
:10170C001B69DB000E4913434B6000F021F80246C5
:10171C000B4B5B681B0903F00F030A49CB5C22FAE5
:10172C0003F3094A1360094B1B681846FFF7BCF911
:10173C00002318461037BD4680BD00BF0020024074
:10174C00001002403C280008140000201800002063
:10175C0080B487B000AF0023FB600023BB60002384
:10176C007B6100237B6000233B611E4B5B68FB604D
:10177C00FB6803F00C03042B02D0082B03D027E0EA
:10178C00194B3B6127E0FB689B0C03F00F03174AD6
:10179C00D35C7B60FB6803F48033002B10D0114BBF
:1017AC005B685B0C03F00103114AD35CBB607B6884
:1017BC000D4A03FB02F2BB68B2FBF3F37B6104E05E
:1017CC007B680C4A02FB03F37B617B693B6102E0A3
:1017DC00054B3B6100BF3B6918461C37BD4680BCBE
:1017EC00704700BF0010024000127A004C2800081D
:1017FC005C28000800093D0080B485B000AF78601B
:10180C000A4B1B680A4AA2FB03235B0A7A6802FB99
:10181C0003F3FB6000BFFB685A1EFA60002BF9D182
:10182C0000BF00BF1437BD4680BC704714000020B9
:10183C00D34D6210164B10B51C68236BB3B918202E
:10184C0000F01EFA0246206320B95221114B1248B7
:10185C0000F0B0F91149124BC0E90013114B0021F3
:10186C0083600B2383810120C2E90401216B0E48A4
:10187C000B694C6958430D4A02FB0400A3FB02326E
:10188C00013340EB0200C1E9043020F0004010BDF0
:10189C00780000205E280008752800080E33CDABB8
:1018AC0034126DE6ECDE05002DF451582D7F954C6D
:1018BC00002310B50446C0E90033C0E9043383604B
:1018CC0081814366C2818361194608225C3000F035
:1018DC00F4F80D4B246263620C4BA3620C4BE36275
:1018EC000C4B23630C4B9C4206D003F168029442D0
:1018FC0002D0D0339C4205D104F15800BDE8104011
:10190C0000F054B910BD00BF411A0008631A00085A
:10191C009B1A0008BF1A0008A4000020024A0349C1
:10192C00034800F069B800BF20000020F91E000831
:10193C002C00002041680C4B10B59942044601D094
:10194C0000F0D4FAA168094B994202D0204600F06D
:10195C00CDFAE168064B994204D02046BDE8104010
:10196C0000F0C4BA10BD00BFA40000200C01002080
:10197C007401002010B50B4B0B4C0C4A20461A601E
:10198C0004210022FFF794FF04F1680001220921D1
:10199C00FFF78EFF04F1D0000222BDE810401221A7
:1019AC00FFF786BFDC010020A400002029190008E5
:1019BC00014800F0FCB800BFE5010020014800F030
:1019CC00F7B800BFE501002010B50446FFF7F0FFA3
:1019DC00236A1BB1BDE81040FFF7F0BF044B236234
:1019EC00044B1B68002BF5D1FFF7C4FFF2E700BFD7
:1019FC0041190008DC0100202DE9F8430746884610
:101A0C0014460026D4E90195B9F1010905D52468DD
:101A1C00002CF7D13046BDE8F883AB89012B07D9F0
:101A2C00B5F90E30013303D029463846C04706437A
:101A3C006835E9E710B50C46B1F90E1000F068F8FE
:101A4C000028ABBF636DA3891B1823F48053ACBF74
:101A5C006365A38110BD2DE9F0411F468B890546B6
:101A6C00DB050C46164605D502230022B1F90E10F3
:101A7C0000F03CF8A389324623F48053A381284616
:101A8C003B46B4F90E10BDE8F04100F053B810B568
:101A9C000C46B1F90E1000F029F8431CA38915BFB0
:101AAC00606523F4805343F48053A38118BFA38152
:101ABC0010BDB1F90E1000F009B803460244934270
:101ACC0000D1704703F8011BF9E7000038B500237B
:101ADC00054D044608462B60FEF73DFF431C02D122
:101AEC002B6803B1236038BDE001002038B50446F3
:101AFC00084611460022054D2A601A46FEF74FFF94
:101B0C00431C02D12B6803B1236038BDE0010020D7
:101B1C0038B50446084611460022054D2A601A467F
:101B2C00FEF7E0FE431C02D12B6803B1236038BDE5
:101B3C00E001002038B50446084611460022054D48
:101B4C002A601A46FEF7EBFE431C02D12B6803B148
:101B5C00236038BDE0010020014B1868704700BFBE
:101B6C007800002070B500260C4D0D4C641BA410A1
:101B7C00A64209D100F04CFE00260A4D0A4C641B0B
:101B8C00A410A64205D170BD55F8043B9847013608
:101B9C00EEE755F8043B98470136F2E73C2900087C
:101BAC003C2900083C290008402900087047704770
:101BBC00704700001FB514461A46094B05461B68B2
:101BCC00D8684CB1074BCDE9013400912B4606493E
:101BDC0000F0B4F900F0D4F9044B1C46F3E700BF55
:101BEC0078000020CD280008DA2800080829000811
:101BFC0038B50546002940D051F8043C0C1F002B89
:101C0C00B8BFE41800F0E4F81C4A136833B96360F9
:101C1C0014602846BDE8384000F0E0B8A34208D96B
:101C2C00206821188B4201BF19685B680918216074
:101C3C00EDE71A465B680BB1A342FAD9116850184C
:101C4C00A0420BD120680144501883421160E0D1AE
:101C5C0018685B68084410605360DAE702D90C23FB
:101C6C002B60D6E7206821188B4201BF19685B688E
:101C7C000918216063605460CBE738BDE80100208F
:101C8C00024B0146186800F023B800BF7800002012
:101C9C0070B50E4E0C463168054611B900F060F96E
:101CAC0030602146284600F05BF9431C0AD0C41C66
:101CBC0024F00304A04207D0211A284600F050F962
:101CCC00013001D14FF0FF34204670BDEC010020F3
:101CDC002DE9F843CD1C25F0030508350C2D38BF34
:101CEC000C25002D074601DBA94205D90C23002643
:101CFC003B603046BDE8F883DFF8D08000F068F830
:101D0C00D8F800301C465CBB29463846FFF7C0FFAC
:101D1C00431C044655D1D8F800402646002E45D128
:101D2C00002C48D023683146384604EB030900F0F8
:101D3C0017F981453FD1216838466D1A2946FFF7BE
:101D4C00A7FF013037D023682B442360D8F800302C
:101D5C00002B38D05A68A2422BD100225A600FE0D7
:101D6C002268521B1FD40B2A17D96119A342256074
:101D7C0018BF5960636808BFC8F8001062514B6007
:101D8C00384604F10B0600F029F826F00706231D4F
:101D9C00F21AAED09B1BA350ABE7A3426268DDD115
:101DAC00C8F80020ECE723466468ACE73446766854
:101DBC00B4E71346CCE70C2338463B6000F00EF832
:101DCC0097E72560DCE75B60FFDE00BFE8010020E1
:101DDC000148FFF7ECBE00BFE40100200148FFF70B
:101DEC00E7BE00BFE40100208A89F8B5054610075C
:101DFC000C4657D44B68002B04DC0B6C002B01DC1D
:101E0C000020F8BDE66A002EFAD0002312F48052AE
:101E1C002F68216A2B6032D0606DA3895A0705D5D3
:101E2C006368C01A636B0BB1236CC01A00230246A3
:101E3C00E66A2846216AB047431CA38906D1296863
:101E4C001D292BD8284A0A41D60727D400226260C4
:101E5C002269D904226004D5421C01D12B6803B934
:101E6C006065616B2F600029CAD004F1440399426C
:101E7C0002D02846FFF7BCFE00206063C1E70123B7
:101E8C002846B047411CC8D12B68002BC5D01D2B50
:101E9C0001D0162B01D12F60B2E7A38943F0400388
:101EAC00A381AEE70F69002FAAD0930718BF0023B8
:101EBC000E6808BF4B69F61B0F608B60002E9FDD10
:101ECC0033463A462846216AD4F828C0E047002811
:101EDC0006DCA3894FF0FF3043F04003A38190E769
:101EEC000744361AEAE700BFFEFFBFDF38B50B69BF
:101EFC0005460C4613B90025284638BD18B1036AAF
:101F0C000BB9FFF761FDB4F90C30002BF3D0626E06
:101F1C00D00704D4990502D4A06DFFF748FE2846DB
:101F2C002146FFF761FF636E0546DA07E4D4A38907
:101F3C009B05E1D4A06DFFF73BFEDDE70EB403B5C6
:101F4C00014603AB054853F8042B0068019300F0DD
:101F5C0045F802B05DF804EB03B070477800002040
:101F6C0038B50023054D044608462B60FEF724FDCA
:101F7C00431C02D12B6803B1236038BDE001002063
:101F8C00062008B500F096FB0120FEF7A1FC936833
:101F9C0010B4013B002B936007DA9469A34201DB78
:101FAC000A2902D110BC00F0C7BA1368581C106083
:101FBC001970084610BC7047F8B506460F46144613
:101FCC00D518AC4201D1002007E03A46304614F84F
:101FDC00011BFFF7DCFF431CF3D1F8BD2DE9F04FDB
:101FEC000D461446984606469DB018B1036A0BB9C7
:101FFC00FFF7EAFC6B6ED90705D4AB899A0502D4BE
:10200C00A86DFFF7D4FDAB891B0701D52B699BB9D4
:10201C002946304600F0CEFA70B16B6EDC0704D561
:10202C004FF0FF301DB0BDE8F08FAB899805F7D4A9
:10203C00A86DFFF7BDFDF3E70023099320238DF86E
:10204C00293030234FF00109CDF80C80DFF8AC813A
:10205C008DF82A3023469A4613F8012B0AB1252A0B
:10206C00F9D1BAEB040B0BD05B462246294630461D
:10207C00FFF7A2FF013000F0A980099A5A44099297
:10208C009AF80030002B00F0A18000234FF0FF32B3
:10209C00CDE905230AF1010A049307938DF8533017
:1020AC001A935446052214F8011B544800F01EFBE9
:1020BC00049AD8B9D10644BF20238DF853301307A6
:1020CC0044BF2B238DF853309AF800302A2B15D0AF
:1020DC00544600204FF00A0C079A214611F8013B98
:1020EC00303B092B4DD9B0B1079214E0A0EB08039B
:1020FC0009FA03F31343A2460493D2E7039B191D79
:10210C001B680391002BBBBF5B4242F0020207939A
:10211C000793B8BF049223782E2B0CD163782A2B0B
:10212C0034D1039B02341A1D1B680392002BB8BFD9
:10213C004FF0FF330593DFF8C8A0032250462178F7
:10214C0000F0D4FA38B14022049BA0EB0A00824084
:10215C0013430134049314F8011B062229488DF80B
:10216C00281000F0C3FA00283FD0274B1BBB039B61
:10217C00073323F0070308330393099B3B4409936C
:10218C0068E70C4601200CFB0232A6E700234FF057
:10219C000A0C194601340593204610F8012B303AED
:1021AC00092A03D9002BC6D00591C4E704460123A4
:1021BC000CFB0121F0E703AB00932A463046134B8E
:1021CC0004A9AFF300800746781CD6D16B6ED907F3
:1021DC0005D4AB899A0502D4A86DFFF7E9FCAB894D
:1021EC005B063FF51DAF09981CE703AB00932A462D
:1021FC003046064B04A900F07DF8E4E709290008F5
:10220C000F2900081329000800000000C51F000852
:10221C002DE9F047164699468A680B6907469342A2
:10222C00B8BF1346336091F843200C46DDF820808C
:10223C000AB1013333602368990642BF3368023315
:10224C003360256815F0060506D104F1190AE36818
:10225C0032689B1AAB422BDC94F84320131E226885
:10226C0018BF0123920630D44946384604F1430284
:10227C00C047013023D02368226903F00603042BE6
:10228C0014BF002533684FF0000608BFE56804F161
:10229C001A0408BFED1A54F8123C08BF25EAE5757C
:1022AC009342C4BF9B1AED18B5421AD1002008E026
:1022BC000123524649463846C047013003D14FF0FE
:1022CC00FF30BDE8F0870135C1E73020E11881F817
:1022DC0043005A1C94F845102244023382F84310F0
:1022EC00C2E70123224649463846C0470130E6D0B2
:1022FC000136D9E72DE9FF470F7E9146782F8046AE
:10230C000C469A460C9D01F1430207D8622F0AD85D
:10231C00002F00F0D580582F00F0C18004F1420549
:10232C0084F842703AE0A7F16303152BF6D801A1AB
:10233C0051F823F099230008AD2300082923000845
:10234C00292300082923000829230008AD230008AD
:10235C002923000829230008292300082923000821
:10236C00B3240008D92300086D2400082923000891
:10237C0029230008D524000829230008D9230008A4
:10238C002923000829230008752400082B681A1D2E
:10239C001B682A6004F1420584F842300123A0E056
:1023AC0020682B68070603F10401296001D51E681B
:1023BC0003E04606FBD5B3F90060002E03DA2D23AB
:1023CC00764284F843300A23594812E02B6820687F
:1023DC00191D2960050601D51E6802E04106FBD5D2
:1023EC001E886F2F0CBF08230A235148002184F844
:1023FC0043106568002DA8BF2168A560A4BF21F01B
:10240C00040121600EB9002D4BD01546B6FBF3F13B
:10241C0003FB1167C75D05F8017D3746BB420E46CD
:10242C00F4D9082B0BD12368DE0708D52369616822
:10243C009942DEBF302305F8013C05F1FF35521BF4
:10244C0022614B4621464046CDF800A003AAFFF777
:10245C00DFFE01304AD14FF0FF3004B0BDE8F08709
:10246C00236843F0200323607827324884F84570B2
:10247C00236829681F0651F8046B02D45F0648BF15
:10248C00B6B2DF0748BF43F02003296048BF236082
:10249C001EB9236823F0200323601023A6E72448E9
:1024AC00E4E71546BDE72B682668181D61692860AE
:1024BC0035061B6801D5196002E07006FBD5198042
:1024CC00002315462361BCE72B6800211A1D2A60E6
:1024DC001D686268284600F009F908B1401B60606D
:1024EC0063682361002384F84330AAE72A464946EF
:1024FC0040462369D0470130ADD023689B0713D4E5
:10250C00E068039B9842B8BF1846A6E70123324601
:10251C0049464046D04701309DD00135E3680399C8
:10252C005B1AAB42F2DCEBE7002504F11906F5E788
:10253C001A2900082B290008F8B50E461446054642
:10254C0018B1036A0BB9FFF73FFAA369A360A3891B
:10255C001A0725D523691BB323682269F6B2981A8A
:10256C0063693746834204DC21462846FFF7BEFCEC
:10257C00E0B9A368013BA36023685A1C22601E705B
:10258C006269431C9A4204D0A389DB0706D50A2E44
:10259C0004D121462846FFF7A9FC38B93846F8BDC6
:1025AC002146284600F006F80028D5D04FF0FF371A
:1025BC00F4E7000038B52A4B054618680C4618B1EC
:1025CC00036A0BB9FFF700FAA389B4F90C201807BA
:1025DC0022D4D90607D409232B6042F040034FF0D4
:1025EC00FF30A38134E0580712D5616B41B104F17F
:1025FC004403994202D02846FFF7FAFA002363639A
:10260C00A38923F02403A38100236360236923603F
:10261C00A38943F00803A38123694BB9A38903F46D
:10262C002073B3F5007F03D02146284600F091F8C3
:10263C00A089B4F90C2010F001030AD00023A36088
:10264C0063695B42A361236943B910F08000C4D174
:10265C0038BD810758BF6369A360F4E70020F7E732
:10266C00780000201F2938B504460D4604D91623DE
:10267C0003604FF0FF3038BDC26B12B152F82130FD
:10268C004BB9204600F030F82A4601462046BDE8FA
:10269C00384000F017B8012B0AD0591C03D116236F
:1026AC0003600120E7E70024284642F825409847BC
:1026BC000020E0E7024B01461868FFF7D3BF00BFCC
:1026CC007800002038B50023064D04460846114614
:1026DC002B60FEF7EDF8431C02D12B6803B123608D
:1026EC0038BD00BFE0010020FEF7DBB8034610B593
:1026FC00C9B202449342184601D1002003E0047889
:10270C0001338C42F6D110BD70B50C46B1F90E10E8
:10271C00154600291E4696B00CDAA389002113F049
:10272C00800F0CBF4FF480634023002031602B607E
:10273C0016B070BD6A4600F049F80028EDDB01992F
:10274C0001F47041A1F50053594259414FF4806393
:10275C00EBE78B8973B59D0706460C4607D504F14C
:10276C004703236023610123636102B070BD6A4695
:10277C0001ABFFF7C9FF009905463046FFF7A8FAF1
:10278C0048B9B4F90C309A05EFD423F0030343F0A5
:10279C000203A381E3E7A389206043F08003A381B4
:1027AC00009B20616361019B5BB13046B4F90E1054
:1027BC0000F01EF828B1A38923F0030343F00103B2
:1027CC00A381A3891D43A581CFE7000038B5002361
:1027DC00064D0446084611462B60FEF7C7F8431C0D
:1027EC0002D12B6803B1236038BD00BFE00100208B
:1027FC0038B50023054D044608462B60FEF7C5F896
:10280C00431C02D12B6803B1236038BDE0010020CA
:10281C00F8B500BFF8BC08BC9E467047F8B500BFC1
:08282C00F8BC08BC9E46704791
:102834000001000200040008000000000000000085
:102844000102030406070809020304050607080930
:102854000A0B0C0D0E0F101001025245454E542068
:102864006D616C6C6F632073756363656564656427
:10287400002F6275696C642F676E752D746F6F6CB1
:10288400732D666F722D73746D33325F31312E3355
:102894002E72656C312E32303233303931322D3173
:1028A4003630302F7372632F6E65776C69622F6ECA
:1028B40065776C69622F6C6962632F7374646C69E9
:1028C400622F72616E642E63002C2066756E6374D1
:1028D400696F6E3A2000617373657274696F6E205C
:1028E40022257322206661696C65643A2066696CEE
:1028F4006520222573222C206C696E6520256425B1
:102904007325730A00232D302B2000686C4C00655E
:102914006667454647003031323334353637383907
:10292400414243444546003031323334353637383A
:0829340039616263646566000D
:04293C00310100085D
:042940000D0100087D
:10294400FF000000C0F9A4B0999282F88090C3E11E
:10295400C8C700000024F4001000000001000000BB
:102964000000000003000000A4000020000000009C
:10297400A40000200C0100207401002000000000CD
:102984000000000000000000000000000000000043
:102994000000000000000000000000000000000033
:1029A4000000000000000000000000000000000023
:0C29B40000000000000000002C000020CB
:0400000508000A3DA8
:00000001FF
