:020000040800F2
:10000000002800205D0800080D08000813080008FB
:10001000190800081F080008250800080000000053
:100020000000000000000000000000002B08000895
:10003000370800080000000043080008FD0700081A
:10004000A5080008A5080008A5080008A5080008DC
:10005000A5080008A5080008A5080008A5080008CC
:10006000A5080008A5080008A5080008A5080008BC
:10007000A5080008A5080008A5080008A5080008AC
:10008000A5080008A5080008A5080008A50800089C
:10009000A5080008A5080008A5080008A50800088C
:1000A000A5080008A5080008A5080008A50800087C
:1000B000A5080008A508000800000000A508000821
:1000C000A50800080000000000000000A5080008C6
:1000D00000000000A5080008A508000800000000B6
:1000E000A5080008A5080008A508000800000000F1
:1000F0000000000000000000000000000000000000
:0C01000000000000000000005FF808F1A3
:10010C0010B5054C237833B9044B13B10448AFF345
:10011C0000800123237010BD180000200000000097
:10012C003C0C000808B5034B1BB103490348AFF363
:10013C00008008BD000000001C0000203C0C0008E2
:10014C0080B485B000AF78607B684FF4FA5202FB44
:10015C0003F3FB60064AFB685360054B00229A6070
:10016C00034B07221A6000BF1437BD4680BC704792
:10017C0010E000E080B582B000AF934B1B78092BE8
:10018C0000F2028201A252F823F000BFC101000864
:10019C0061020008DF02000863030008C1030008C5
:1001AC00F903000869040008E9040008FD040008CC
:1001BC006B050008854BDB68844A23F47F3323F4FA
:1001CC006073D360824BDB68814A9B0C9B04D360C9
:1001DC0000F0F6F900F0F4F978607B68002B19DD7B
:1001EC007B68082B16DC794BDB68784A23F47F4359
:1001FC0023F08003D360754BDB687A6806320121EB
:10020C0001FA02F21146714A0B43D360714A7B68C2
:10021C0013601EE07B68092BDCD17B686E4A13608F
:10022C006A4BDB68694A23F47F4323F08003D36075
:10023C00664BDB68674A12680632012101FA02F24A
:10024C001146624A0B43D3605F4B01221A7000BF08
:10025C00A7E1BFE7614B1B680133604A13605F4B3A
:10026C001B68013B032B00F2918101A252F823F091
:10027C008D0200089B020008A9020008B7020008C2
:10028C00524BDB68514A43F40043D36020E0504B9F
:10029C00DB684F4A43F00103D36019E04C4BDB6839
:1002AC004B4A43F00203D36012E04A4B1B684C4AA2
:1002BC00D35C012B05D1464BDB68454A43F0040364
:1002CC00D360464B00221A603F4B02221A7000BFCB
:1002DC005CE13F4BDB683E4A43F00803D36000F01F
:1002EC006FF903463F4A13603E4B1B680A2B24D11F
:1002FC003C4B00221A60364BDB68354A23F0020374
:10030C00D360334BDB68324A23F00803D360304BA5
:10031C00DB682F4A43F01003D3602E4B1B68324A24
:10032C00D35C012B06D1284B03221A702B4B0022D5
:10033C001A6002E0244B04221A70284B1B6801330C
:10034C00264A1360254B1B68042B40F221811E4B5F
:10035C0009221A701CE11E4BDB681D4A43F0200376
:10036C00D3601E4B1B6801331C4A13601B4B1B686C
:10037C00042B02D9144B09221A7000F021F9034600
:10038C00184A1360174B1B680A2B40F00381154B5E
:10039C0000221A600E4BDB680D4A23F02003D36059
:1003AC000B4BDB680A4A43F04003D360064B042234
:1003BC001A70EFE0064BDB68054A43F08003D3600C
:1003CC00014B05221A70ECE03400002000080140BB
:1003DC00000C014040000020380000203C000020B0
:1003EC0000000020440000200C0000206F4BDB6854
:1003FC006E4A23F08003D3606C4BDB686B4A43F48A
:10040C008073D3606A4B1B680133694A1360684B75
:10041C001B68042B02D9674B09221A7000F0D0F824
:10042C000346654A1360644B1B680B2B40F0B48089
:10043C00614B00221A605D4BDB685C4A23F48073CD
:10044C00D3605A4BDB68594A43F40073D360594B61
:10045C0006221A70564B00221A609DE0534BDB6843
:10046C00524A43F00203D360504BDB684F4A43F4CB
:10047C008063D36000F0A4F803464F4A13604E4BE0
:10048C001B680A2B1DD14C4B00221A60474BDB68B2
:10049C00464A23F00203D360444BDB68434A23F003
:1004AC001003D360414BDB68404A23F48063D36074
:1004BC003E4BDB683D4A43F40063D3603D4B07225F
:1004CC001A703B4B1B680133394A1360384B1B685D
:1004DC00042B63D9374B09221A705FE0334BDB686E
:1004EC00324A43F48053D360324B08221A7058E0DE
:1004FC002E4BDB682D4A23F48053D3602B4BDB68E7
:10050C002A4A43F40053D360294B1B680133284A11
:10051C001360274B1B68042B02D9264B09221A7037
:10052C0000F04EF80346244A1360234B1B680B2B38
:10053C0036D1214B00221A601C4BDB681B4A23F47A
:10054C000053D360194BDB68184A43F48043D360E3
:10055C00184B00221A70164B00221A6020E0174B21
:10056C00DB68164A23F47F3323F46073D3600F4B9C
:10057C00DB680E4A9B0C9B04D3600C4BDB680B4A6C
:10058C0043F40043D3600CE000BF0AE000BF08E076
:10059C0000BF06E000BF04E000BF02E000BF00E0C7
:1005AC0000BF00BF0837BD4680BD00BF000C014036
:1005BC003C000020340000204400002000080140D2
:1005CC0080B483B000AFFF23FB71524B4FF48032E9
:1005DC001A61504B02221A614E4B04221A614D4B88
:1005EC0008221A614B4B9B6803F01003002B02D1BD
:1005FC000123FB7110E0474B9B6803F02003002B99
:10060C0002D10223FB7107E0424B9B6803F04003CD
:10061C00002B01D10323FB713E4B01221A613D4B90
:10062C004FF400321A613B4B04221A61394B0822F9
:10063C001A61384B9B6803F01003002B02D1042382
:10064C00FB7110E0334B9B6803F02003002B02D1AD
:10065C000523FB7107E02F4B9B6803F04003002B35
:10066C0001D10623FB712B4B01221A61294B02226B
:10067C001A61284B4FF480221A61264B08221A610A
:10068C00244B9B6803F01003002B02D10723FB7152
:10069C0010E0204B9B6803F02003002B02D10823B1
:1006AC00FB7107E01B4B9B6803F04003002B01D14F
:1006BC000923FB71174B01221A61164B02221A6196
:1006CC00144B04221A61134B4FF400221A61114B84
:1006DC009B6803F01003002B02D10A23FB7110E07E
:1006EC000C4B9B6803F02003002B02D10023FB7101
:1006FC0007E0084B9B6803F04003002B01D10B2350
:10070C00FB71044B08221A61FB7918460C37BD4665
:10071C0080BC70470008014080B500AF00F006F8BF
:10072C004FF47A70FFF70CFDFEE7000080B586B041
:10073C0000AF07F1080300221A605A609A60DA6071
:10074C00284B9B69274A43F004039361254B9B6913
:10075C0003F004037B607B68224B9B69214A43F0C6
:10076C00080393611F4B9B6903F008033B603B68D4
:10077C0000224FF68F711C4800F01EFA00224FF633
:10078C00FF711A4800F018FA4FF68F73BB60012303
:10079C00FB6000233B6102237B6107F108031946D0
:1007AC00114800F08DF87023BB600023FB6001231F
:1007BC003B6107F1080319460B4800F081F84FF62E
:1007CC00FF73BB600123FB6000233B6102237B6151
:1007DC0007F108031946054800F072F800BF1837F6
:1007EC00BD4680BD0010024000080140000C0140D5
:1007FC0080B500AFFFF7BEFC00F050F800BF80BD25
:10080C0080B400AFFEE780B400AFFEE780B400AF69
:10081C00FEE780B400AFFEE780B400AFFEE780B423
:10082C0000AF00BFBD4680BC704780B400AF00BFB6
:10083C00BD4680BC704780B400AF00BFBD4680BCD5
:10084C00704780B400AF00BFBD4680BC704700004D
:10085C00FFF7F7FF0B480C490C4A002302E0D45871
:10086C00C4500433C4188C42F9D3094A094C0023F0
:10087C0001E013600432A242FBD300F0B5F9FFF79C
:10088C004BFF704700000020180000205C0C000893
:10089C00180000204C000020FEE7000080B400AFE0
:1008AC00054B1B781A46054B1B681344034A13600F
:1008BC0000BFBD4680BC70471500002048000020DA
:1008CC0080B48BB000AF7860396000237B6200236A
:1008DC003B6261E101227B6A02FA03F3FB613B6834
:1008EC001B68FA691340BB61BA69FB699A4240F014
:1008FC0050813B685B68974A93425ED0954A93421D
:10090C0075D8954A934258D0934A93426FD8934ADC
:10091C00934252D0914A934269D8914A93424CD017
:10092C008F4A934263D88F4A934246D08D4A934262
:10093C005DD8122B2AD8122B59D801A252F823F0C9
:10094C00C7090008A1090008B3090008F509000847
:10095C00FB090008FB090008FB090008FB0900085B
:10096C00FB090008FB090008FB090008FB0900084B
:10097C00FB090008FB090008FB090008FB0900083B
:10098C00FB090008A9090008BD090008764A934232
:10099C0013D02CE03B68DB683B6229E03B68DB68EA
:1009AC0004333B6224E03B68DB6808333B621FE0A6
:1009BC003B68DB680C333B621AE03B689B68002B9E
:1009CC0002D104233B6213E03B689B68012B05D1E9
:1009DC0008233B627B68FA691A6109E008233B62D1
:1009EC007B68FA695A6103E000233B6200E000BFB8
:1009FC00BB69FF2B01D87B6801E07B6804337B610A
:100A0C00BB69FF2B02D87B6A9B0002E07B6A083B28
:100A1C009B003B617B691A680F213B6901FA03F368
:100A2C00DB431A40396A3B6901FA03F31A437B69C9
:100A3C001A603B685B6803F08053002B00F0A980C0
:100A4C004A4B9B69494A43F001039361474B9B69AD
:100A5C0003F00103BB60BB68454A7B6A9B08023309
:100A6C0052F82330FB607B6A03F003039B000F22D8
:100A7C0002FA03F3DB43FA681340FB607B683D4AE0
:100A8C0093420DD07B683C4A934207D07B683B4A2B
:100A9C00934201D1022304E0032302E0012300E08E
:100AAC0000237A6A02F0030292009340FA6813431F
:100ABC00FB602F497B6A9B080233FA6841F82320BC
:100ACC003B685B6803F48013002B06D02C4B9A68B0
:100ADC002B49BB6913438B6006E0294B9A68BB69B1
:100AEC00DB43274913408B603B685B6803F40013BE
:100AFC00002B06D0224BDA682149BB691343CB602B
:100B0C0006E01F4BDA68BB69DB431D491340CB6021
:100B1C003B685B6803F40033002B06D0184B5A6813
:100B2C001749BB6913434B6006E0154B5A68BB6908
:100B3C00DB43134913404B603B685B6803F4803321
:100B4C00002B1FD00E4B1A680D49BB6913430B6069
:100B5C001FE000BF00003210000031100000221016
:100B6C0000002110000012100000111000100240B3
:100B7C000000014000080140000C01400010014041
:100B8C00000401400B4B1A68BB69DB430949134055
:100B9C000B607B6A01337B623B681A687B6A22FAC2
:100BAC0003F3002B7FF496AE00BF00BF2C37BD467D
:100BBC0080BC70470004014080B483B000AF786003
:100BCC000B467B8013467B707B78002B03D07A8896
:100BDC007B681A6103E07B881A047B681A6100BF8A
:100BEC000C37BD4680BC704770B500260C4D0D4CC3
:100BFC00641BA410A64209D100F01AF800260A4D75
:100C0C000A4C641BA410A64205D170BD55F8043BD8
:100C1C0098470136EEE755F8043B98470136F2E762
:100C2C00540C0008540C0008540C0008580C000814
:100C3C00F8B500BFF8BC08BC9E467047F8B500BFBD
:080C4C00F8BC08BC9E4670478D
:040C54003101000862
:040C58000D01000882
:100C5C000001010101000000000000000001010181
:080C6C0001000000000100007E
:040000050800085D8A
:00000001FF
